:100000000C94AD020C94CA020C94CA020C94CA025D
:100010000C94CA020C94D0030C94CA020C94CA0229
:100020000C94CA020C94CA020C94CA020C94CA0220
:100030000C94CA020C949D190C94CA020C94CA0226
:100040000C942A1C0C94CA020C94CA020C94CA0286
:100050000C9470180C942E180C94CA020C94CA02BA
:100060000C943E0B0C94CA020C94CA020C94CA0263
:100070000C94CA020C94CA020C94CA02435353450E
:10008000323031302070726F6A656374206279207B
:100090005365616E204D616E736F6E202853494425
:1000A0003A2034323834363431332900484947480D
:1000B00053434F5245530052414E4B004E414D4524
:1000C0000053434F5245004C4556454C0050726515
:1000D000737320656E7465722C20276E272C206F39
:1000E0007220616E7920627574746F6E206F6E205D
:1000F00074686520494F20426F61726420746F00FC
:10010000626567696E21004C6576656C20757021AB
:1001100000596F7520617265206E6F77206F6E20B9
:100120006C6576656C2025642E00546865206761D7
:100130006D65206973206E6F772072756E6E696EC3
:10014000672061742025642E253032647820737016
:100150006565642E00596F75206761696E206120A6
:100160006C69666521005041555345440047616DF7
:10017000652069732063757272656E746C79207086
:1001800061757365642E00416C6C20696E707574C6
:100190007320617265206265696E672069676E6FA2
:1001A0007265642E00507265737320277027207467
:1001B0006F20636F6E74696E75652E00596F7520C0
:1001C00072616E206F7574206F662074696D652191
:1001D00000596F752068617665206C6F73742061BB
:1001E000206C6966652E00596F75206E6F772068E8
:1001F0006176652031206C6966652072656D616984
:100200006E696E672E00596F75206E6F772068617A
:100210007665202564206C697665732072656D6152
:10022000696E696E672E005761746368206F75741C
:100230002100507265737320656E746572206F7251
:1002400020616E7920627574746F6E206F6E2074F9
:10025000686520494F20426F61726400746F2063AB
:100260006F6E74696E75652E2E2E00596F75206C39
:100270006F73742061206C6966652100596F752069
:100280006E6F7720686176652031206C6966652025
:1002900072656D61696E696E672E00596F75206EAB
:1002A0006F772068617665202564206C69766573B8
:1002B0002072656D61696E696E672E0057617463A7
:1002C00068206F75742100507265737320656E74B9
:1002D0006572206F7220616E7920627574746F6E22
:1002E000206F6E2074686520494F20426F617264F0
:1002F0002000746F20636F6E74696E75652E2E2EEC
:100300000047414D45204F5645522100596F7572A7
:100310002073636F7265207761732025642C2061E0
:100320006E6420796F75206D616465206974207436
:100330006F206C6576656C2025642100484947482C
:1003400053434F5245530052414E4B004E414D4591
:100350000053434F5245004C4556454C00596F756C
:10036000206F627461696E656420612068696768E6
:100370002073636F72652100506C65617365207432
:1003800079706520796F7572206E616D6520286DBA
:100390006178203230206368617273292061626F56
:1003A00076652E00507265737320656E7465722CCD
:1003B00020276E2720286F7220616E792062757465
:1003C000746F6E206F6E2074686520494F20426FF5
:1003D0006172642920746F007374617274206120EB
:1003E0006E65772067616D652E2E2E0047414D4565
:1003F00020494E2050524F47524553532E2E2E0027
:1004000043757272656E74204C6576656C3A202572
:10041000640043757272656E742053706565643A4A
:100420002025642E25303264780043757272656E23
:10043000742053636F72653A2025640043757272AD
:10044000656E74204C697665733A202564009804C3
:100450009C04A004A404A804AC04B004B404B8042C
:10046000BB04BF04C304C704CC04D004D404D80420
:10047000DD04E104E504EA04EE04F304F804FD04F9
:10048000020507050B050E05120516051A051E05C2
:10049000220526052A052E057E90907FFE92926DFC
:1004A0007C828245FE82827DFE929283FE909081C4
:1004B0007C82925DFE1010FF82FE83040202FDFE2C
:1004C0001028C7FE020203FE403040FFFE2010FF4E
:1004D0007C82827DFE9090617C828A7C03FE909873
:1004E000676492924D8080FE8081FC0202FDF804D8
:1004F0000204F9FC021C02FDC6281028C7E0100EF9
:1005000010E1868A92A2C37C92A27D42FE03468AB3
:1005100092634492926D182848FFE4A2A29D7C92B7
:10052000924D809EA0C16C92926D6492927D10104B
:1005300010111B5B25643B256448001B5B306D007C
:100540001B5B376D001B5B324A001B5B25646D0033
:100550001B5B421B5B440025630011241FBECFEFD1
:10056000D8E0DEBFCDBF11E0A0E0B1E0E0ECF2E406
:1005700002C005900D92A038B107D9F723E0A0E89A
:10058000B1E001C01D92AB36B207E1F70E945E16E2
:100590000C945E210C9400008FB7F894E8E6F0E02C
:1005A000908192609083D99AECE6F0E090819F6010
:1005B0009083109284011092800110928101109218
:1005C00082011092830188230CF47894089580911D
:1005D0008401181644F5809185016FB76078F8940E
:1005E000909184019230B4F021E030E091E0F90183
:1005F000EB57FE4F4081F901EC57FE4F40839F5F60
:10060000292F30E040918401552747FD509524174C
:1006100035076CF390918401915090938401662387
:1006200019F0789408958FEF08958FB7F894E8E65D
:10063000F0E0908192609083D99A1092840188238F
:100640000CF4789408958FB7F894E8E6F0E0908180
:100650009D7F908388230CF4789408950F931F93C3
:10066000CF93DF938091800190918101A0918201CD
:10067000B0918301892B8A2B8B2B09F48BC0CFB7C8
:10068000C078F894D3B1DF700E94BF1B0091800145
:100690001091810120918201309183010617170783
:1006A0002807390708F063C080918901D8135FC01B
:1006B000D230E9F020F4D13009F04FC006C0D43078
:1006C00041F1D83009F049C036C00E94BF1BDC019F
:1006D000CB018A569F4FAF4FBF4F809380019093BD
:1006E0008101A0938201B093830180E04FC00E94FA
:1006F000BF1BDC01CB018A569F4FAF4FBF4F80938A
:10070000800190938101A0938201B093830181E0E5
:100710003DC00E94BF1BDC01CB018A569F4FAF4FEB
:10072000BF4F8093800190938101A0938201B09389
:10073000830182E02BC00E94BF1BDC01CB018A56E3
:100740009F4FAF4FBF4F8093800190938101A09343
:100750008201B093830183E019C01092800110924E
:10076000810110928201109283018FEF0FC080915E
:100770008901D81751F010928001109281011092D6
:100780008201109283018FEF01C08FEFCC2319F00B
:10079000789401C08FEFDF91CF911F910F91089551
:1007A0001F920F920FB60F9211242F933F934F93E6
:1007B0005F936F937F938F939F93AF93BF93CF93E9
:1007C000EF93FF93C3B1CF708091840184300CF01C
:1007D0008DC0C23049F120F4C13009F07FC007C09C
:1007E000C43009F43FC0C83009F078C059C08091C6
:1007F0008401E82FFF27E7FDF095EB57FE4F1082AD
:100800008F5F809384010E94BF1BDC01CB01845D5C
:100810009E4FAF4FBF4F8093800190938101A09373
:100820008201B093830162C080918401E82FFF2789
:10083000E7FDF095EB57FE4F91E090838F5F80933B
:1008400084010E94BF1BDC01CB01845D9E4FAF4F32
:10085000BF4F8093800190938101A0938201B09358
:10086000830144C080918401E82FFF27E7FDF095C4
:10087000EB57FE4F92E090838F5F809384010E943C
:10088000BF1BDC01CB01845D9E4FAF4FBF4F8093F8
:10089000800190938101A0938201B093830126C0CF
:1008A00080918401E82FFF27E7FDF095EB57FE4F7D
:1008B00093E090838F5F809384010E94BF1BDC01D3
:1008C000CB01845D9E4FAF4FBF4F809380019093CB
:1008D0008101A0938201B093830108C0109280012E
:1008E000109281011092820110928301C0938901BC
:1008F000FF91EF91CF91BF91AF919F918F917F9198
:100900006F915F914F913F912F910F900FBE0F907C
:100910001F9018950F931F93CF93DF93C8EFD1E0EB
:1009200002E012E020E030E066E18DE29DE2ADE21F
:10093000B0E0629FA001639F500D112446575E4FA7
:10094000FA0180839183A283B38319921992F801EB
:1009500011928F012F5F3F4F2530310551F7DF9105
:10096000CF911F910F91089549E650E060E170E04A
:100970008AE891E00E9452204AE050E069E770E086
:1009800088EF91E00E94522045E050E063E870E07B
:1009900082E092E00E9452200895FF920F931F93ED
:1009A000CF93DF938A01F22EC82FD0E026E1829FF9
:1009B000C001112486579E4F0E94B21DFE01EE0F0A
:1009C000FF1FE850FE4F11830083CE5FDD4FF8829A
:1009D000DF91CF911F910F91FF90089526E1829FA3
:1009E000C00111249C0126573E4F822F932F08955A
:1009F000E82FF0E0EE0FFF1FE850FE4F808191815D
:100A00000895E82FF0E0EE5FFD4F80810895CF93C9
:100A1000DF9300D000D000D0CDB7DEB748E050E083
:100A200068E070E0CE0101960E9442208981843501
:100A300079F4E7E1F1E0DE0112968EE191E0319187
:100A40002D91321307C0E817F907C9F781E003C0F9
:100A500080E001C080E026960FB6F894DEBF0FBE9E
:100A6000CDBFDF91CF91089548E050E068E070E09D
:100A700086E191E00E94522008950E940705882394
:100A800009F149E650E060E170E08AE891E00E94F7
:100A900042204AE050E069E770E088EF91E00E9470
:100AA000422045E050E063E870E082E092E00E947E
:100AB00042208AE891E09F938F930E94F91D0F9046
:100AC0000F9008950E9434050E94B4040895AF92D7
:100AD000BF92CF92DF92EF92FF920F931F93CF932B
:100AE000DF93A82E83E08A15A0F1C0E0D2E00F2E9C
:100AF000F6E0CF2EF2E0DF2EF02D0F2EF7E0EF2EF6
:100B0000F2E0FF2EF02D24E030E00F2EF6E1BF2EB4
:100B1000F02D890101501109B09EB001B19E700DF8
:100B2000112466577E4FB29EC001B39E900D1124D2
:100B300086579E4F0E94B21D3A912A913B832A8389
:100B4000F60182916F01F70182937F019801A0164F
:100B500000F3DF91CF911F910F91FF90EF90DF9005
:100B6000CF90BF90AF900895CF932091F80130912E
:100B7000F9018217930748F4EAEFF1E0C1E021910F
:100B800031918217930738F001C0C0E08C2F0E948A
:100B900067058C2F04C0CF5FC53089F78FEFCF91E9
:100BA00008950F931F93843051F018F4882339F07F
:100BB00008C0873058F1873009F059C04AC081E039
:100BC00057C0282F215030E0F901E95FFD4F8081A7
:100BD000860F803208F08052F901EE0FFF1FEE0FF2
:100BE000FF1FE25EFE4F40815181628173818A0165
:100BF0009B0104C036952795179507958A95D2F7DE
:100C0000D901C80111E08127817032C0282F2550F9
:100C100030E0F901E65FFD4F8081860F803208F0F9
:100C20008052F901EE0FFF1FEE0FFF1FE65DFE4F32
:100C300040815181628173818A019B0104C0369594
:100C40002795179507958A95D2F7D901C801817024
:100C50000FC020910E0230910F02C90102C096957B
:100C600087956A95E2F711E08127817001C080E0E5
:100C70001F910F910895EF92FF920F931F93CF93BF
:100C8000DF93CDB7DEB760970FB6F894DEBF0FBE27
:100C9000CDBF282F30E0F901E65FFD4F9081F901CB
:100CA000EE0FFF1FEE0FFF1FE65DFE4F008111816B
:100CB00022813381FE013196DE0151960F2EFCE335
:100CC000EF2EF02DF12CB901A801092E04C0769564
:100CD0006795579547950A94D2F740FF02C0E08286
:100CE00001C010829F5F903208F09F2D3196EA1765
:100CF000FB0749F7BE016F5F7F4F8B5F0E94A60B1A
:100D000060960FB6F894DEBF0FBECDBFDF91CF91D6
:100D10001F910F91FF90EF900895AF92BF92DF92D5
:100D2000EF92FF920F931F93CF93DF93CDB7DEB770
:100D300060970FB6F894DEBF0FBECDBF482F50E0CE
:100D4000FA01E95FFD4F9081FA01EE0FFF1FEE0FF0
:100D5000FF1FE25EFE4F0081118122813381FE017F
:100D600031965E0161E1A60EB11C0F2EF4E0EF2E6C
:100D7000F1E0FF2EF02DE40EF51ED12CB901A801F3
:100D8000092E04C076956795579547950A94D2F732
:100D900040FF04C0D7014C91408301C010829F5F87
:100DA000903208F09D2D3196EA15FB0539F7BE010A
:100DB0006F5F7F4F8F5F0E94A60B60960FB6F8940F
:100DC000DEBF0FBECDBFDF91CF911F910F91FF907E
:100DD000EF90DF90BF90AF900895CF93DF93CDB7A2
:100DE000DEB760970FB6F894DEBF0FBECDBFFE0131
:100DF00031969E012F5E3F4F92E19193E217F307E8
:100E0000E1F7BE016F5F7F4F0E94A60B60960FB6A1
:100E1000F894DEBF0FBECDBFDF91CF910895EF9262
:100E2000FF920F931F93CF93DF93CDB7DEB76097F9
:100E30000FB6F894DEBF0FBECDBFA0910C02B091EB
:100E40000D0200910E0210910F02FE013196BF01BA
:100E5000AE014F5E5F4FEE24EA940F2EF2E1FF2EBB
:100E6000F02DCF01861B970B9D01082E02C03695F1
:100E700027950A94E2F720FF02C0F0820BC0980188
:100E800002C0369527958A95E2F720FF02C0E082DE
:100E900001C010823196E417F50719F7BE016F5FA4
:100EA0007F4F87E00E94A60B60960FB6F894DEBFD6
:100EB0000FBECDBFDF91CF911F910F91FF90EF90AB
:100EC0000895843049F018F4882331F008C0873041
:100ED00050F0873071F40BC00E94ED0608958150E8
:100EE0000E948D06089585500E943B0608950E9439
:100EF0000F07089580911202882341F04FEF60910F
:100F00001002809111020E948C0B089543E36091BE
:100F10001002809111020E948C0B08950E94A21D64
:100F20008F719078992324F40197806E9F6F0196BA
:100F3000809307020E94A21D8F719078992324F458
:100F40000197806E9F6F0196809308020E94A21DF8
:100F50008F719078992324F40197806E9F6F01968A
:100F6000809309020E94A21D8F719078992324F426
:100F70000197806E9F6F019680930A020E94A21DC6
:100F80008F719078992324F40197806E9F6F01965A
:100F900080930B028BED96EB90930D0280930C02E5
:100FA00090930F0280930E020E94E50B80E00E9456
:100FB000ED0684E00E94ED0680E00E948D0681E04F
:100FC0000E948D0682E00E948D0680E00E943B0612
:100FD00081E00E943B060E940F07089510921002C4
:100FE0000E94A21D8F709078992324F40197806F3E
:100FF0009F6F01968093110281E0809312020E94FC
:101000007A07089580E00E94ED0684E00E94ED06D4
:1010100080E00E948D0681E00E948D0682E00E94A1
:101020008D0680E00E943B0681E00E943B060E9404
:101030000F070895CF9380911002873081F10E94AD
:101040006107C0911002CF5F609111028C2F0E9446
:10105000D10580931202C093100262E08BE092E00F
:101060000E94E0180E947A07809112028823B9F04A
:1010700080911002873099F481E090E00090110295
:1010800002C0880F991F0A94E2F720910E02309156
:101090000F02822B932B90930F0280930E02CF911D
:1010A0000895CF93809110028823A9F00E946107D0
:1010B000C0911002C150609111028C2F0E94D10585
:1010C00080931202C093100262E08BE092E00E94D3
:1010D000E0180E947A07CF910895CF938091110272
:1010E0008823B9F0809110020E946107C09111021B
:1010F000C1506C2F809110020E94D1058093120282
:10110000C093110262E08BE092E00E94E0180E941E
:101110007A07CF910895CF93809111028F30B9F063
:10112000809110020E946107C0911102CF5F6C2F65
:10113000809110020E94D10580931202C093110287
:1011400062E08BE092E00E94E0180E947A07CF9163
:101150000895CF93DF93809110028730C9F1909169
:1011600011029923C9F10E946107C0911102D09127
:101170001002C150DF5F6C2F8D2F0E94D10580932C
:101180001202D0931002C093110262E08BE092E051
:101190000E94E0180E947A07809112028823F1F0E1
:1011A000809110028730D1F481E090E0009011022C
:1011B00002C0880F991F0A94E2F720910E02309125
:1011C0000F02822B932B90930F0280930E0206C086
:1011D00080911102811102C00E941A08DF91CF9103
:1011E0000895CF93DF93809110028730C9F19091D9
:1011F00011029F30C9F10E946107C0911102D09184
:101200001002CF5FDF5F6C2F8D2F0E94D10580937E
:101210001202D0931002C093110262E08BE092E0C0
:101220000E94E0180E947A07809112028823F1F050
:10123000809110028730D1F481E090E0009011029B
:1012400002C0880F991F0A94E2F720910E02309194
:101250000F02822B932B90930F0280930E0206C0F5
:10126000809111028F3011F40E941A08DF91CF9102
:101270000895CF93DF9380911002882321F19091FC
:1012800011029923D1F00E946107C0911102D091FF
:101290001002C150D1506C2F8D2F0E94D105809328
:1012A0001202D0931002C093110262E08BE092E030
:1012B0000E94E0180E947A070BC00E94510808C0E3
:1012C0000E946D0805C0809111028111F9CFF5CF00
:1012D000DF91CF910895CF93DF93809110028823FF
:1012E00021F1909111029F30D1F00E946107C091CD
:1012F0001102D0911002CF5FD1506C2F8D2F0E9420
:10130000D10580931202D0931002C093110262E0C3
:101310008BE092E00E94E0180E947A070BC00E94C6
:10132000510808C00E948B0805C0809111028F30BF
:10133000C9F7F5CFDF91CF91089581E020910E029A
:1013400030910F022F3F3F4F09F080E0089581E078
:1013500090911002973009F080E008958091120278
:101360000895109212020895FF920F931F93CF9346
:10137000DF93F82E80911002082F112707FD10959A
:101380002F2D30E0E9012196F901E95FFD4F9081B1
:10139000961B32F4F901E95FFD4F9FE190830BC08A
:1013A00090322CF4F901E95FFD4F908304C0F901FC
:1013B000E95FFD4F1082609111020E94D105809378
:1013C00012028F2D0E948D060C171D0711F40E942A
:1013D0007A07DF91CF911F910F91FF900895CF93DE
:1013E000282F30E0E0911002FF27E7FDF095A901DA
:1013F0004B5F5F4FC1E0E417F50709F0C0E0CC2375
:10140000B9F0613039F4909111029F3061F410927B
:1014100012020EC06F3F39F490911102911103C076
:101420001092120205C090911102960F9093110232
:10143000F901E65FFD4F9081961B32F4F901E65FFA
:10144000FD4F9FE190830BC090322CF4F901E65FD1
:10145000FD4F908304C0F901E65FFD4F10820E94AA
:101460003B06C1110E947A07CF9108952FB7F894D7
:1014700086E480937C008EE880937A0080E092E09E
:101480009093170280931602909315028093140292
:101490001092130284E080931802109219021092A5
:1014A0001A0210921B0210921C0280931D0222232A
:1014B0000CF47894EAE7F0E08081806480830895FA
:1014C00080911D0208958091160290911702843E2A
:1014D000914040F480911402909115028230924024
:1014E00008F448C08091160290911702833292400E
:1014F00038F0809114029091150282309240E0F110
:101500008091160290911702843E914038F48091A8
:101510001402909115028134924080F58091160258
:10152000909117028332924038F08091140290918A
:1015300015028134924020F5809114029091150299
:101540008F3E9140F8F080911402909115028435FD
:101550009240D0F480911602909117028B3D9140F9
:10156000A8F080911602909117028C32924080F080
:1015700085E0089580E0089582E0089586E008956A
:1015800088E0089581E0089587E0089583E0089554
:1015900084E00895CF92DF92EF92FF920F931F9312
:1015A000CF93DF93DFB7D078F89484E080931D0267
:1015B0000E94630AC82F4091190250911A0260914B
:1015C0001B0270911C02452B462B472B89F10E9470
:1015D000BF1BC0901902D0901A02E0901B02F0903D
:1015E0001C029701860106501F4F2F4F3F4F0617D1
:1015F000170728073907C0F4C43049F410921902BC
:1016000010921A0210921B0210921C0223C0C09367
:101610001D020E94BF1B6093190270931A028093EF
:101620001B0290931C0216C0CD28CE28CF2891F41F
:1016300080911802843071F4C43061F0C0931D02AF
:101640000E94BF1B6093190270931A0280931B02C1
:1016500090931C02C0931802DD2309F0789481E076
:1016600090911D02943009F480E0DF91CF911F9199
:101670000F91FF90EF90DF90CF9008951F920F92FF
:101680000FB60F9211242F933F934F935F938F9335
:101690009F93EF93FF938091780090917900209130
:1016A0001302211105C0909317028093160209C0FE
:1016B00020E034E0A901481B590B509315024093D8
:1016C00014029091130281E0891B80931302809190
:1016D0001302811106C0ECE7F0E080818E7F8083E9
:1016E00005C0ECE7F0E0808181608083EAE7F0E00C
:1016F000808180648083FF91EF919F918F915F91B2
:101700004F913F912F910F900FBE0F901F90189502
:1017100080E80E944A1A08951F93CF93DF93D82F31
:10172000162FC42F81E00E94721A177080E1189F53
:10173000B00111248D2F8F70862B0E94721A8C2F6E
:101740000E94721ADF91CF911F9108950F931F93FA
:10175000CF93DF93C82F062F172F82E00E94721AB3
:101760008C2F87700E94721AC02FD12F10E08991A0
:101770000E94721A1F5F1031D1F7DF91CF911F9134
:101780000F9108950F931F93CF93DF93C82F062FC8
:10179000172F83E00E94721A8C2F8F700E94721A8A
:1017A000C02FD12F10E089910E94721A1F5F18304C
:1017B000D1F7DF91CF911F910F91089584E00E949E
:1017C000721A82E00E94721A08958FE00E94721AC3
:1017D000089521E020934C0284E690E090934E021D
:1017E00080934D0220934B02089580914C020895FE
:1017F00080914B02819580934B02089580914B021A
:10180000089580914D0290914E02089520914D02CD
:1018100030914E023695279536952795ABE7B4E182
:101820000E94231D96958795089540914D025091F1
:101830004E029A013695279536952795ABE7B4E188
:101840000E94231D96958795342F24E6829F301998
:101850001124832F089580914D0290914E02843F70
:1018600021E0920770F4803921E0920768F48C320D
:1018700021E0920760F4883C910560F02AE030E0B6
:101880000BC020E030E008C022E030E005C025E0D9
:1018900030E002C029E130E0822F932F089580913B
:1018A0004C02833678F48F5F80934C020E942B0C9D
:1018B00020914D0230914E02820F931F90934E0261
:1018C00080934D02089581B18F6081B982B1807F8C
:1018D00082B9089580911E028150089581E090910F
:1018E0001E02953009F080E0089581E090911E027B
:1018F000911180E0089582B1807F82B980911E02AB
:1019000090E0019718161906D4F480E090E060E0AA
:1019100041E050E022B1FA0102C0EE0FFF1F8A95AC
:10192000E2F7CF01822B82B96F5F862F90E0209182
:101930001E0230E021503109821793075CF30895AD
:1019400080911E02853018F48F5F80931E020E94E2
:101950007B0C089580911E02882319F0815080939A
:101960001E020E947B0C089584E080931E020E9458
:101970007B0C08950E948A040E943D050E94880BFA
:101980000E94CC0240E060E07BE480E090E00E94B6
:10199000D4170E949F1B0E94FD180E94630C0E9496
:1019A000360A789408950E94E90B0E9473160E94EB
:1019B000B40C0E94F21B0895CF9380E20E94A41AF7
:1019C00069E070E08CE090E00E94781A8CEE93E081
:1019D0009F938F930E940D1E6BE070E087E090E074
:1019E0000E94781A0E94F50B1F928F9380E094E07A
:1019F0009F938F930E940D1E6CE070E087E090E053
:101A00000E94781A0E94150CC82F0E94060C1F9283
:101A1000CF931F928F9382E194E09F938F930E94C4
:101A20000D1E6DE070E087E090E00E94781A0E9441
:101A300083169F938F938AE294E09F938F930E94E3
:101A40000D1E6EE070E087E090E00E94781A0E9420
:101A50006A0C1F928F938CE394E09F938F930E9464
:101A60000D1E8DB79EB744960FB6F8949EBF0FBE5D
:101A70008DBFCF9108950E948E070E94FF1A0E9489
:101A8000DC0C0E94EB1B0E94E7020E9429180895BB
:101A9000CF93DF93C5E6D3E014C00E9422188823B9
:101AA00081F0888199810E94B91D8E3611F08E34A3
:101AB00021F481E080931F0208C08A3031F08D301C
:101AC00021F00E94E7028F3F41F30E942918DF9125
:101AD000CF9108950E94AA0C0E94750C81116DC0CF
:101AE0000E941C1A0E94EF1B0E94FF1A80E20E94B3
:101AF000A41A69E070E08CE090E00E94781A8BE60E
:101B000092E09F938F930E940D1E6BE070E089E03E
:101B100090E00E94781A0E946A0C0F900F9081301A
:101B200049F48CE792E09F938F930E940D1E0F90D3
:101B30000F900EC00E946A0C1F928F938BE992E067
:101B40009F938F930E940D1E0F900F900F900F90F8
:101B50000E946A0C81110EC06CE070E08CE090E095
:101B60000E94781A8CEB92E09F938F930E940D1E37
:101B70000F900F906EE070E087E090E00E94781A7E
:101B800087EC92E09F938F930E940D1E6FE070E0B0
:101B900087E090E00E94781A82EF92E09F938F9303
:101BA0000E940D1E0E94480D0E94FF1A0E94EB1B0E
:101BB0000F900F900F900F9008950E94331A089580
:101BC0000E94AA0C0E94750C81117BC00E941C1AF5
:101BD0000E94EF1B0E94FF1A80E20E94A41A69E093
:101BE00070E08CE090E00E94781A8CEB91E09F937B
:101BF0008F930E940D1E6AE070E08CE090E00E94DE
:101C0000781A81ED91E09F938F930E940D1E6CE0F6
:101C100070E089E090E00E94781A0E946A0C0F90B0
:101C20000F900F900F90813049F487EE91E09F93D1
:101C30008F930E940D1E0F900F900EC00E946A0C91
:101C40001F928F9386E092E09F938F930E940D1EC8
:101C50000F900F900F900F900E946A0C81110EC090
:101C60006DE070E08CE090E00E94781A87E292E0EC
:101C70009F938F930E940D1E0F900F906FE070E066
:101C800087E090E00E94781A82E392E09F938F931E
:101C90000E940D1E60E170E087E090E00E94781ADB
:101CA0008CE592E09F938F930E940D1E0E94480D39
:101CB0000E94FF1A0E94EB1B0F900F900F900F9045
:101CC00008950E94331A08952F923F924F925F9287
:101CD0006F927F928F929F92AF92BF92CF92DF923C
:101CE000EF92FF920F931F93CF93DF937C01212CF0
:101CF000C42ED12C82E0C80ED11C862E912C34012A
:101D0000E2E06E0E711C0F2EF5E1AF2EB12CF02D1E
:101D10000F2EF5E64F2EF3E05F2EF02D80E20E94AD
:101D2000A41AB601C3010E94781AFF92EF920E9492
:101D3000F91D0E94921A80E290E00E942F1E0E94DC
:101D4000891A022D10E0E501C01BD10B0F900F90F6
:101D50001C161D065CF4312C80E290E00E942F1EC0
:101D60003394832D90E08C179D07B4F3C401800F4A
:101D7000911FB60102960E94781A0E9422188823A9
:101D8000E1F3F201808191810E94B91DC82F99274A
:101D90000E942F1ECB3109F448C0CA3011F0CD305B
:101DA00019F4211045C041C0C83011F0CF3741F4BB
:101DB0002220D9F12A94F701E20DF11D108235C0DD
:101DC0008C2F81568A3148F4F4E1F21570F1F70155
:101DD000E20DF11DC083239428C08C2F81548A31D9
:101DE00048F484E1821508F1F701E20DF11DC0838A
:101DF00023941BC08C2F80538A3048F4E4E1E21511
:101E0000A0F0F701E20DF11DC08323940EC0C03293
:101E100021F0CD3211F0CF3541F4F4E1F21528F084
:101E2000F701E20DF11DC08323940E94291876CF9B
:101E30000E942918DF91CF911F910F91FF90EF9091
:101E4000DF90CF90BF90AF909F908F907F906F90DA
:101E50005F904F903F902F900895CF92DF92EF9236
:101E6000FF920F931F93CF93DF93CDB7DEB76697A3
:101E70000FB6F894DEBF0FBECDBF19821A821B8247
:101E80001C82FE01359682E1DF011D928A95E9F7F9
:101E90000E94FF1A80E20E94A41A64E070E08CE0C5
:101EA00090E00E94781A81E093E09F938F930E94C4
:101EB0000D1E65E070E087E090E00E94781A0E94B5
:101EC000F50B182F0E9483161F921F939F938F93D9
:101ED0008CE093E09F938F930E940D1E0E948316C7
:101EE0000E94B405D82E67E070E086E190E00E9481
:101EF000781A8CE393E09F938F930E940D1E68E005
:101F000070E088E090E00E94781A87E493E09F9365
:101F10008F930E940D1E68E070E08EE090E00E94BA
:101F2000781A8CE493E09F938F930E940D1E68E0D3
:101F300070E082E290E00E94781A21E533E03F935E
:101F40002F930E940D1E68E070E089E290E00E94ED
:101F5000781A27E533E03F932F930E940D1E0FB6AA
:101F6000F894DEBF0FBECDBF09E010E00F2EF8E3FE
:101F7000EF2EF1E0FF2EF02D0F2EF7EFCF2EF02DEC
:101F8000C00E602F712F89E090E00E94781A9801AE
:101F9000285031093F932F93FF92EF920E94F91D31
:101FA000602F712F8DE090E00E94781A8C2D0E9496
:101FB000EE049F938F930E94F91D602F712F84E28E
:101FC00090E00E94781A8C2D0E94F8049F938F93C2
:101FD000FF92EF920E94F91D602F712F8BE290E02B
:101FE0000E94781A8C2D0E9401051F928F93FF92F8
:101FF000EF920E94F91D0F5F1F4F0FB6F894DEBFDE
:102000000FBECDBF0E30110509F0B6CFBFEFDB1606
:1020100009F495C00E94230364E170E087E090E03A
:102020000E94781A8DE593E09F938F930E940D1E76
:1020300065E170E087E090E00E94781A88E793E01D
:102040009F938F930E940D1E4D2D495F6BE0CE0133
:1020500001960E94640E0E94F50B182F0E948316B1
:10206000AC01212FBE016F5F7F4F8D2D0E94CD04EB
:1020700080E20E94A41AED2CFF24E7FCF09489E092
:10208000E80EF11CB7018DE090E00E94781A0F90E5
:102090000F900F900F9017E180E290E00E942F1EAA
:1020A0001150D1F7B7018DE090E00E94781A8D2D84
:1020B0000E94EE049F938F930E94F91DB70184E262
:1020C00090E00E94781A8D2D0E94F8049F938F93C0
:1020D00008E311E01F930F930E94F91DB7018BE2F3
:1020E00090E00E94781A8D2D0E9401051F928F9317
:1020F0001F930F930E94F91D0E94B40464E170E0E5
:1021000087E090E00E94781A0FB6F894DEBF0FBE09
:10211000CDBF15E380E290E00E942F1E1150D1F751
:1021200065E170E087E090E00E94781A15E380E2B4
:1021300090E00E942F1E1150D1F70E94150364E118
:1021400070E087E090E00E94781A84EA93E09F9321
:102150008F930E940D1E65E170E087E090E00E9481
:10216000781A88ED93E09F938F930E940D1E0E9432
:10217000480D0F900F900F900F9066960FB6F89441
:10218000DEBF0FBECDBFDF91CF911F910F91FF90AA
:10219000EF90DF90CF9008950E942218882399F045
:1021A00080916503909166030E94B91D8E3641F0BF
:1021B00021E030E08E3411F020E030E0C9010895D4
:1021C00081E090E0089580E008950F931F93CF93EE
:1021D000DF93CDB7DEB72A970FB6F894DEBF0FBEF8
:1021E000CDBF0E944F0C0E94F80B0E94E50B0E948D
:1021F000FF1A80E20E94A41A69E070E08CE090E08F
:102200000E94781A87E091E09F938F930E940D1EA1
:102210006CE070E087E090E00E94781A0E94F50B75
:102220001F928F9381E191E09F938F930E940D1EE7
:102230006DE070E087E090E00E94781A0E94150C33
:10224000182F0E94060C1F921F931F928F938AE2F1
:1022500091E09F938F930E940D1E0E946E0C0FB60B
:10226000F894DEBF0FBECDBF811110C06FE070E0EB
:1022700087E090E00E94781A85E591E09F938F9324
:102280000E940D1E0E94A00C0F900F900E94F50B53
:102290001F928F9382E391E09F938F931F928AE026
:1022A0008F938E010F5F1F4F1F930F930E94361E57
:1022B0000E94881680EF0E949516C8010E94981609
:1022C0000FB6F894DEBF0FBECDBF13C00E94CC1076
:1022D000882331F081E080931F020E9429180DC0ED
:1022E0009FEF20E732E0915020403040E1F700C0FE
:1022F00000000E949D168111E9CF2A960FB6F8942E
:10230000DEBF0FBECDBFDF91CF911F910F9108951A
:102310000E9422188823E9F080916503909166035A
:102320000E94B91D8E3661F08E3469F08A3071F0EA
:1023300021E030E08D3011F020E030E0C901089557
:1023400081E090E0089581E090E0089581E090E0E0
:10235000089580E00895FF920F931F93CF93DF932A
:102360000E94FF1A44E050E06CE070E08BE391E0E3
:102370000E94251B80E20E94A41A65E070E087E0BD
:1023800090E00E94781A8CE790E09F938F930E94D0
:102390000D1E67E070E086E190E00E94781A8CEAFA
:1023A00090E09F938F930E940D1E68E070E088E09C
:1023B00090E00E94781A87EB90E09F938F930E94A1
:1023C0000D1E68E070E08EE090E00E94781A8CEBC1
:1023D00090E09F938F930E940D1E68E070E082E270
:1023E00090E00E94781A81EC90E09F938F930E9476
:1023F0000D1E68E070E089E290E00E94781A87EC98
:1024000090E09F938F930E940D1E8DB79EB70C9600
:102410000FB6F8949EBF0FBE8DBFC9E0D0E008E3B1
:1024200011E0FC2E97EFF90E6C2F7D2F89E090E0E4
:102430000E94781A9E01285031093F932F931F93D1
:102440000F930E94F91D6C2F7D2F8DE090E00E946C
:10245000781A8F2D0E94EE049F938F930E94F91D8E
:102460006C2F7D2F84E290E00E94781A8F2D0E94BD
:10247000F8049F938F931F930F930E94F91D6C2F65
:102480007D2F8BE290E00E94781A8F2D0E9401052B
:102490001F928F931F930F930E94F91D21968DB762
:1024A0009EB70E960FB6F8949EBF0FBE8DBFCE306E
:1024B000D10509F0B6CF64E170E087E090E00E94BA
:1024C000781A8DEC90E09F938F930E940D1E65E12A
:1024D00070E087E090E00E94781A80E091E09F939E
:1024E0008F930E940D1E0E94E50B8FEF0E949516A0
:1024F0000F900F900F900F9085E591E00E94981635
:1025000017C09FE729EA83E0915020408040E1F71F
:1025100000C000000E94E7028F3F21F40E94881152
:10252000882331F00E94BF1BCB010E94A71D05C06C
:102530000E949D16882301F3E4CFDF91CF911F9174
:102540000F91FF9008950E942218882399F080919E
:102550006503909166030E94B91D803741F021E028
:1025600030E0803511F020E030E0C901089581E0CD
:1025700090E0089580E008950E94EF1B0E942303DD
:102580000E94FF1A80E20E94A41A69E070E08CE0C9
:1025900090E00E94781A86E691E09F938F930E94C4
:1025A0000D1E6BE070E087E090E00E94781A8DE6E7
:1025B00091E09F938F930E940D1E6CE070E087E086
:1025C00090E00E94781A87E891E09F938F930E9491
:1025D0000D1E6DE070E087E090E00E94781A85EAB9
:1025E00091E09F938F930E940D1E8DB79EB7089622
:1025F0000FB6F8949EBF0FBE8DBF0E94A312882312
:10260000E1F30E9429180E94FF1A0E94DC0C0E942C
:1026100015030E94EB1B08952F923F924F925F92F9
:102620006F927F928F929F92AF92BF92CF92DF92E2
:10263000EF92FF920F931F93CF93DF93CDB7DEB747
:102640006B970FB6F894DEBF0FBECDBF0E94D51BAF
:1026500069837A838B839C836D837E838F83988742
:1026600069877A878B879C876D877E878F87988B12
:10267000698B7A8B8B8B9C8B212C0F2EF8EE4F2E37
:10268000F3E05F2EF02DCE0101969E8B8D8B8B8F0C
:102690003E88C8C10E94DC0C0E9402080E94EE071E
:1026A00089E10E94FA1B92C10E940C1C81110E94B8
:1026B000B1090E94D51B6B017C010E94AE098823E1
:1026C00009F4BCC00E94A7098111B8C0AB8CB32C1F
:1026D00000E010E0CF8AD88EE98EFA8EC22C750108
:1026E000D02E92E0091709F476C2901738F0002333
:1026F00009F40FC2A1E00A1309C03CC2B3E00B17F2
:1027000009F4A5C1E4E00E1709F4D2C13801D701DC
:102710008D909D90AD90BC900E94010CBC0180E119
:1027200097E20E94F31C649D9001659D300D749D9D
:10273000300D1124ADECBCEC0E94231D96958795BD
:102740009695879596958795880E991EA11CB11C24
:102750008F89988DA98DBA8D88159905AA05BB0515
:1027600008F462C092E0D91669F19D1530F0DD20C1
:1027700081F0A1E0DA1245C018C0B3E0DB1671F1B8
:10278000E4E0DE123EC037C00F2EF0E54F2E512C94
:10279000F02D0E94FE0B682F80E00E94B40931C02A
:1027A0000F2EFCE34F2E512CF02D0E94FE0B682FB4
:1027B000619581E00E94B40924C00F2EF8E74F2EE6
:1027C000512CF02D0E94FE0B682F82E00E94B4096C
:1027D00018C00F2EF4E64F2E512CF02D0E94FE0B48
:1027E000682F619580E00E94EF090BC00F2EFBE47B
:1027F0004F2E512CF02D0E94FE0B682F81E00E947D
:10280000EF09F301EE0FFF1FEE0FFF1F81E090E0D5
:102810008C0F9D1FE80FF91F8F89988DA98DBA8D98
:1028200080839183A283B3830F5F1F4F94E0E90EEF
:10283000F11C0530110509F053CF2C2C0E94E70242
:10284000D82EAFEF8A13F8C123C0F801808191819F
:102850000E94B91DF82E211004C0FBE18F130CC09B
:102860000DC081E0281205C09BE5F91651F02E2C11
:102870001DC0A2E02A1641F02E2C18C02A2CFB2CD9
:1028800015C0292CFB2C12C0CF2C2E2CFB2C0EC0DB
:10289000CC24CA94FF24FA9405E613E0E12CBB246F
:1028A000BA946894992491F8AA24A3940E942218B7
:1028B0008111CBCF8F2DB4E4CB1629F08C3419F0D5
:1028C0008C3609F0C6C10E946D0880C0E5E5FE1691
:1028D00019F0F5E7FF1203C00E941A0877C081E0E3
:1028E000D81649F092E4C91631F0A4E4FA1619F0AA
:1028F000B4E6FB1203C00E94510868C0DD2049F015
:10290000E3E4CE1631F0F2E5FF1619F082E7F81293
:1029100003C00E948B085AC09EE6F91619F0AEE477
:10292000FA1204C081E080931F0297C1B0E7FB1642
:1029300019F0E0E5FE1203C00E94BC1247C00E94DD
:10294000CA0A882361F10E94600A8330C9F020F42A
:10295000813081F090F40BC08630C1F018F48530DE
:10296000A9F511C08730A9F0883081F515C00E9403
:10297000A9082CC00E941A0829C00E94F10826C08C
:102980000E946D0823C00E948B0820C00E94390954
:102990001DC00E9451081AC00E946B0917C00E94F6
:1029A0002E03813071F01CF4882371F00FC0823047
:1029B00029F0833059F40E946D0808C00E941A085B
:1029C00005C00E94510802C00E948B080E94AE09F7
:1029D000882329F00E94A709882309F465CE0E9464
:1029E000AE09882379F00E94A709882359F00E9434
:1029F000051A0E94151C90E005960E9478160E9408
:102A0000071C0BC00E940C1C882319F00E94E00DCB
:102A100004C00E94071C0E946A0D80911F02813031
:102A200009F41BC10E94750C811105C00E949D090B
:102A3000882309F42FCE0E949D09882309F40DC133
:102A400084E690E00E9478160E94DC0C06C13801F2
:102A5000D7018D909D90AD90BC900E94010CBC015F
:102A600080E197E20E94F31CB4E6B69F9001B79F05
:102A7000300D1124ADECBCEC0E94231D969587957A
:102A80009695879596958795880E991EA11CB11CE1
:102A90008F89988DA98DBA8D88159905AA05BB05D2
:102AA00008F097CE0F2EF4E64F2E512CF02DBCCE11
:102AB0003801D7018D909D90AD90BC900E94010C83
:102AC000BC0180E197E20E94F31CBBE4B69F900139
:102AD000B79F300D1124ADECBCEC0E94231D9695E0
:102AE00087959695879596958795880E991EA11C32
:102AF000B11C8F89988DA98DBA8D88159905AA0565
:102B0000BB0508F073CE0F2EFBE44F2E512CF02D99
:102B10008BCE3801D7018D909D90AD90BC900E94D6
:102B2000010CBC0180E197E20E94F31CB0E5B69F66
:102B30009001B79F300D1124ADECBCEC0E94231D19
:102B4000969587959695879596958795880E991E63
:102B5000A11CB11C8F89988DA98DBA8D88159905F6
:102B6000AA05BB0508F010CE0F2EF0E54F2E512C14
:102B7000F02D5ACE3801D7018D909D90AD90BC902C
:102B80000E94010CBC0180E197E20E94F31CBCE3AF
:102B9000B69F9001B79F300D1124ADECBCEC0E94A4
:102BA000231D969587959695879596958795880E7A
:102BB000991EA11CB11C8F89988DA98DBA8D88157D
:102BC0009905AA05BB0508F0EBCD0F2EFCE34F2EAF
:102BD000512CF02D29CE3801D7018D909D90AD90CC
:102BE000BC900E94010CBC0180E197E20E94F31CA2
:102BF000B8E7B69F9001B79F300D1124ADECBCEC47
:102C00000E94231D9695879596958795969587950D
:102C1000880E991EA11CB11C8F89988DA98DBA8D23
:102C200088159905AA05BB0508F0C7CD0F2EF8E752
:102C30004F2E512CF02DF8CD93E0891709F443CE97
:102C4000A2E08A1709F448CECC24CA94FF24FA944F
:102C500046CEB1E4CB123ACE3FCE6B960FB6F89487
:102C6000DEBF0FBECDBFDF91CF911F910F91FF90BF
:102C7000EF90DF90CF90BF90AF909F908F907F901C
:102C80006F905F904F903F902F9008950E943B0D62
:102C90000E940C130AC00E94E51080911F0281114E
:102CA0000CC00E943B0D0E940C130E94750C8111F8
:102CB00004C080911F02882371F308950E94BA0C0A
:102CC0000E94E4190E9488160E94AB110E94D30C46
:102CD00010921F020E94461680911F028111F6CFAA
:102CE0000E942D0FF3CF1092500210924F020895C0
:102CF00020914F0230915002820F931F9093500207
:102D000080934F02089580914F0290915002089550
:102D1000109221021092200210922302109222029D
:102D200010922502109224020895809307010895BD
:102D3000909325028093240208950F931F93CF93BD
:102D4000DF93CDB7DEB728970FB6F894DEBF0FBE7E
:102D5000CDBFE0912002F0912102309781F01491D3
:102D600010FF06C0109221021092200200E079C0EC
:102D70003196F0932102E093200200E072C0E091CE
:102D80002202F0912302309709F457C08191F09309
:102D90002302E093220281110AC0109223021092B2
:102DA000220280E18093260200E010E05AC0982FB2
:102DB00091569A3178F4E82FF0E0EE0FFF1FE457B8
:102DC000FC4F85919491809320029093210200E022
:102DD00010E047C0982F91549A3178F4E82FF0E032
:102DE000EE0FFF1FE453FC4F8591949180932002D6
:102DF0009093210200E010E034C0982F90539A3055
:102E000078F4E82FF0E0EE0FFF1FEE5DFB4F8591A9
:102E10009491809320029093210200E010E021C061
:102E20008D32E9F4E6E9F4E08591949180932002F3
:102E30009093210200E010E014C080912402909150
:102E4000250201E0009709F000E0909323028093AF
:102E50002202109225021092240210E002C000E02B
:102E600010E00E94DE0B30910701FE013896CE0182
:102E70000196212F220F220B23232083110F31973C
:102E8000E817F907B1F71982BE016F5F7F4F8FE036
:102E90000E94C20B80912602882319F081508093F2
:102EA0002602002349F021E030E0809126028823A9
:102EB00029F020E030E002C020E030E081E0211184
:102EC00080E028960FB6F894DEBF0FBECDBFDF912D
:102ED000CF911F910F910895CF93C82F8A3019F485
:102EE0008DE00E946C172FB7207802C0222329F1B1
:102EF000909152029F3FD1F3F89480915102E82FB4
:102F0000F0E0ED5AFD4FC0838F5F809351028091B6
:102F100052028F5F80935202809151028F3F11F4D1
:102F200010925102E1ECF0E08081806280832223E4
:102F300039F0789420E030E005C021E030E002C0B4
:102F400020E030E0822F932FCF9108958091640389
:102F50008823E1F32FB72078F894809152033091C1
:102F6000640390E0831B91095AF4E091520380912D
:102F70006403F0E0E81BF109ED59FC4F80810AC0C1
:102F8000E091520380916403F0E0E81BF109ED5AEF
:102F9000FC4F8081909164039150909364032223AD
:102FA00009F0789490E00895109251021092520224
:102FB000109252031092640310926303409327020D
:102FC000DC01CB01880F991FAA1FBB1F880F991F17
:102FD000AA1FBB1F9C01AD01220F331F441F551FA9
:102FE00060E072E18AE790E00E94071DDA01C90102
:102FF0000196A11DB11DAC01BD01BB2324F44F5F9F
:103000005F4F6F4F7F4FDB01CA01B595A79597952D
:1030100087959C01215031093093C5002093C4004D
:10302000E1ECF0E088E1808380818068808388E043
:1030300091E0909368038093670390936603809375
:10304000650308959091640381E0911101C080E0CF
:103050000895109252031092640308951F920F92E4
:103060000FB60F9211242F938F939F93EF93FF939B
:1030700080915202882329F18091510220915202BD
:1030800090E0821B91095AF4E09151028091520222
:10309000F0E0E81BF109EE5AFC4F80810AC0E09194
:1030A000510280915202F0E0E81BF109ED5AFD4F08
:1030B0008081909152029150909352028093C60069
:1030C00005C0E1ECF0E080818F7D8083FF91EF917E
:1030D0009F918F912F910F900FBE0F901F90189579
:1030E0001F920F920FB60F9211242F933F934F937D
:1030F0005F936F937F938F939F93AF93BF93CF9380
:10310000EF93FF93C091C60080912702882349F076
:10311000809152028F3F29F060E070E08C2F0E9476
:103120006C1780916403803120F081E08093630309
:1031300018C0CD3009F4CAE080915203E82FF0E0C6
:10314000ED5AFC4FC0838F5F8093520380916403DC
:103150008F5F8093640380915203803111F4109249
:103160005203FF91EF91CF91BF91AF919F918F91BA
:103170007F916F915F914F913F912F910F900FBE73
:103180000F901F9018959C01265931092335334023
:10319000B0F440912802463094F4242F332727FDC1
:1031A0003095F901EE0FFF1FE35DFD4F91838083A2
:1031B000F901E75CFD4F60834F5F4093280208955B
:1031C00020912802121614F00E94C318089510923C
:1031D0002802089589B188700895880F991F9C016D
:1031E00040E050E060E072E18AE790E00E94071D55
:1031F00021503109822F932F0895CF93CFB7F894A0
:10320000109228021092290210922A0210922B0288
:1032100010922C02109285001092840088EB91E0AD
:103220000E94ED189093890080938800109280008E
:1032300089E08093810053988AB1806A8AB95F9847
:10324000EFE6F0E080818260808386B3827086BB87
:10325000CC230CF47894CF910895E0E8F0E08081DD
:103260008064808308950F931F93109285001092BD
:10327000840080912D0290912E020E94ED1890936F
:103280008900809388000E942D190E94BF1B209105
:10329000390230E0A901440F551F9A01220F331F54
:1032A000220F331F240F351F8901222717FD209578
:1032B000322FDC01CB01800F911FA21FB31F80931F
:1032C000290290932A02A0932B02B0932C02B09172
:1032D0002802B23034F16B2F772767FD709581E0BB
:1032E00090E0A1E09C0121503109FC01EE0FFF1F8D
:1032F000E35DFD4F40815181F901EE0FFF1FE35D5A
:10330000FD4F51834083FC01E75CFD4F8081F90153
:10331000E75CFD4F8083AF5F8A2F90E086179707A9
:103320000CF3B150B09328021F910F910895E0E87B
:10333000F0E080818F7B808308951F920F920FB6FB
:103340000F9211240F931F932F933F934F935F93EB
:103350006F937F938F939F93AF93BF93EF93FF935D
:103360000E94EA18811105C0109228020E94971944
:1033700018C00E94BF1B0091290210912A022091BF
:103380002B0230912C02061717072807390748F43B
:1033900080912802882319F00E94331902C00E94EC
:1033A0009719FF91EF91BF91AF919F918F917F916D
:1033B0006F915F914F913F912F911F910F910F90BE
:1033C0000FBE0F901F9018950E94E71865E28AEBD8
:1033D00092E00E94C3186AE08AE292E00E94C31859
:1033E0006EE18EE692E00E94C31869E18FE393E0FC
:1033F0000E94C31869E18AEB92E00E94C31868E258
:103400008AE292E00E94C31808950E94E7186AE0D9
:103410008AE292E00E94C3186EE18EE692E00E947A
:10342000C31869E18FE393E00E94C31868E28CED52
:1034300093E00E94C31808950E94E7186FE08AEB9A
:1034400092E00E94C3186AE08FE393E00E94C318E1
:103450006AE08AE292E00E94C31868E28EEE91E090
:103460000E94C31808950E94E7186AE08FE393E072
:103470000E94C3186AE08AE292E00E94C3186AE0E0
:103480008EEE91E00E94C31868E288E891E00E9405
:10349000C318089594B1906B94B92C9A90E59CBD93
:1034A000883021F0803211F0823019F491E09DBD16
:1034B00001C01DBC803269F028F4883071F0803181
:1034C00079F40BC0803429F0803851F48CB58160D8
:1034D0008CBD8CB582608CBD03C08CB581608CBD09
:1034E0002C9808958EBD0DB407FEFDCF8EB50895BE
:1034F0009F938F937F936F9382E395E09F938F9336
:103500000E940D1E0F900F900F900F900F900F9034
:1035100008958BE395E09F938F930E940D1E0F906B
:103520000F90089580E495E09F938F930E940D1E65
:103530000F900F90089585E495E09F938F930E94DC
:103540000D1E0F900F900895282F332727FD3095DB
:103550003F938F938AE495E09F938F930E940D1E73
:103560000F900F900F900F9008950F931F93CF938C
:10357000DF93EB018A01BC01CE010E94781A0E9400
:10358000921A0C171D0744F080E290E00E942F1E53
:1035900021960C171D07C4F70E94891ADF91CF915D
:1035A0001F910F910895EF92FF920F931F93CF9366
:1035B000DF93EB017A010E94781A0E94921ACE15CD
:1035C000DF0584F400E515E080E290E00E942F1E04
:1035D0001F930F930E940D1E21960F900F90CE15F2
:1035E000DF0594F380E290E00E942F1E0E94891A6A
:1035F000DF91CF911F910F91FF90EF9008950E945E
:103600009B1A80E00E94A41A4EE350E062E070E052
:1036100082E090E00E94B51A4EE350E062E070E074
:1036200088E190E00E94B51A48E150E062E070E065
:1036300082E090E00E94D31A48E150E062E070E03E
:103640008EE390E00E94D31A08958F929F92AF92DA
:10365000BF92CF92DF92EF92FF920F931F93CF937F
:10366000DF938C016B017A01E82FF12FDF010D90C0
:103670000020E9F711979A2E981A91F52DC0B701FD
:10368000C6018C0F9D1F0E94781A8B2D0E94A41AD0
:1036900089911F928F931F930F930E940D1EB394D5
:1036A0000F900F900F900F9082E2B81639F085E2DC
:1036B000B81649F084E2B8120CC00AC00F2EF4E22A
:1036C000BF2EF02D06C00F2EF3E2BF2EF02D01C04D
:1036D000B82CA394A91498F280E00E94A41A22C0E6
:1036E000BA01C6010E94781A8FE10E94A41AE8016B
:1036F00089911F928F9387E595E09F938F930E9406
:103700000D1E0F900F900F900F90A12C6894BB246A
:10371000B5F8C01AD10A07E515E00F2EFFE18F2E8C
:10372000F02DD7CFDF91CF911F910F91FF90EF90A8
:10373000DF90CF90BF90AF909F908F9008951092A0
:1037400046021092470210924802109249021092CB
:10375000420210924302109244021092450216BC9B
:103760008CE787BD82E084BD83E085BDEEE6F0E0B6
:1037700080818260808385B3827085BB08950F93BA
:103780001F938FB7F8940091460210914702209141
:1037900048023091490288230CF47894602F712FED
:1037A000822F932F1F910F9108950F931F938FB71F
:1037B000F89400914202109143022091440230910A
:1037C000450288230CF47894602F712F822F932F59
:1037D0001F910F91089581E080934A0208951092FD
:1037E0004A0208958FEF87B9529A109241021092BF
:1037F0004002089528EE33E0482F429FC001439FC6
:10380000900D1124909341028093400208951092EC
:1038100041021092400208952091400230914102ED
:1038200081E0232B09F080E008952091400230913F
:103830004102369527953695279536952795A5EC1F
:10384000B0E20E94231D929582958F7089279F7008
:10385000892708951F920F920FB60F9211242F936C
:103860003F934F935F936F937F938F939F93AF9308
:10387000BF93EF93FF938091460290914702A091EE
:103880004802B09149020196A11DB11D80934602E4
:1038900090934702A0934802B093490280914A0254
:1038A000882311F18091420290914302A091440239
:1038B000B09145020196A11DB11D809342029093E3
:1038C0004302A0934402B09345028091400290913C
:1038D0004102892B49F08091400290914102019769
:1038E000909341028093400280913F028F5F8093CA
:1038F0003F0280913F02843010F010923F024091CD
:103900003F0246958091400290914102892B09F433
:1039100053C0209140023091410228513C4F411147
:103920002FC0369527953695279536952795A5EC82
:10393000B0E20E94231DAC01529542954F7045277D
:103940005F7045279A01ADECBCEC0E94231D969553
:10395000879596958795969587959C01220F331F9D
:10396000880F991F880F991F880F991F820F931F27
:10397000481B590BFA01EA58FE4F808188B921C0D3
:10398000213187E23807B0F0329522952F70232736
:103990003F702327A7E4B3E00E94231D96958795E7
:1039A0009695879596958795FC01EA58FE4F8081FC
:1039B00088B905C018B803C018B8442311F05A9A42
:1039C00001C05A98FF91EF91BF91AF919F918F9154
:1039D0007F916F915F914F913F912F910F900FBE0B
:1039E0000F901F901895AA1BBB1B51E107C0AA1F7F
:1039F000BB1FA617B70710F0A61BB70B881F991F90
:103A00005A95A9F780959095BC01CD010895052E92
:103A100097FB16F4009407D057FD0DD00E942F1D80
:103A200007FC09D07EF490958095709561957F4F45
:103A30008F4F9F4F089550954095309521953F4F5A
:103A40004F4F5F4F0895A29FB001B39FC001A39F46
:103A500001D0B29F700D811D1124911D0895A1E226
:103A60001A2EAA1BBB1BFD010DC0AA1FBB1FEE1FF8
:103A7000FF1FA217B307E407F50720F0A21BB30B43
:103A8000E40BF50B661F771F881F991F1A9469F7BF
:103A900060957095809590959B01AC01BD01CF011B
:103AA00008958F929F92AF92BF92CF92DF92EF9242
:103AB000FF92CF93DF93EC01688179818A819B81AA
:103AC000611571058105910521F464E279ED8BE5BD
:103AD00097E02DE133EF41E050E00E94071D4901DE
:103AE0005A019B01AC01A7EAB1E40E9414216B01C9
:103AF0007C01ACEEB4EFA50194010E942221C60E18
:103B0000D71EE81EF91EF7FE06C081E0C81AD108CC
:103B1000E10880E8F80AC882D982EA82FB82E89448
:103B2000D7F8EE24FF24C601DF91CF91FF90EF90EC
:103B3000DF90CF90BF90AF909F908F9008950E949C
:103B4000511D089580E091E00E94511D0895A0E06C
:103B5000B0E08093000190930101A0930201B09323
:103B600003010895FB01DC0101900D920020E1F7B3
:103B70000895CF93DF93EC013B8130FF34C036FFD3
:103B80000AC03F7B3B838E819F8101969F838E83FA
:103B90002A8130E02AC032FF0FC0E881F98180819C
:103BA000992787FD9095009719F430623B831BC0DD
:103BB0003196F983E8830EC0EA85FB85099597FF66
:103BC00009C02B81019611F480E101C080E2822BB3
:103BD0008B8309C02E813F812F5F3F4F3F832E8310
:103BE0009C01332702C02FEF3FEFC901DF91CF9136
:103BF0000895A0E0B0E0EFEFFDE10C943721FE0165
:103C0000359661917191AF0180916703909168033E
:103C10000E94661EE2E00C945321A0E0B0E0E3E1D4
:103C2000FEE10C943521FE0137966191719107E612
:103C300013E0D8018D919C91DC0113962C91139780
:103C4000286013962C93AF010E94661ED801ED9157
:103C5000FC912381277F2383E4E00C945121609120
:103C60006703709168030E948A200895AEE0B0E077
:103C7000ECE3FEE10C9435210D891E898F89988D26
:103C800026E02C831A83098397FF02C080E090E826
:103C900001979E838D83CE014B96AC01698D7A8D01
:103CA000CE0101960E94661E4D815E8157FD0AC0BD
:103CB0002F813885421753070CF49A01F801E20F5F
:103CC000F31F10822E96E4E00C945121ACE0B0E09A
:103CD000ECE6FEE10C9427217C016B018A01FC01DA
:103CE00017821682838181FFC6C188248394912C18
:103CF0008C0E9D1EF7019381F60193FD859193FF34
:103D000081916F01882309F4B2C1853239F493FDA2
:103D1000859193FF81916F01853229F4B70190E07D
:103D20000E948A20E7CF512C312C20E02032A8F4C9
:103D30008B3261F028F4803251F0833271F40BC081
:103D40008D3239F0803349F4216028C0226024602C
:103D500025C0286023C0206121C027FD27C0382F3F
:103D600030533A3078F426FF06C0FAE05F9E300DFB
:103D70001124532E13C08AE0389E300D1124332EA7
:103D800020620CC08E3221F426FD71C1206406C071
:103D90008C3611F4206802C0883641F4F60193FD98
:103DA000859193FF81916F018111C0CF982F955418
:103DB000933018F09052933028F40C5F1F4FFFE3BC
:103DC000F9830DC0833631F0833771F0833509F004
:103DD0005EC023C0F801808189830E5F1F4F442499
:103DE0004394512C540115C03801F2E06F0E711C40
:103DF000F801A080B18026FF03C0652D70E002C0ED
:103E00006FEF7FEFC5012C870E947F202C0183017B
:103E10002C856FE7262E222218C03801F2E06F0EA3
:103E2000711CF801A080B18026FF03C0652D70E0F1
:103E300002C06FEF7FEFC5012C870E9474202C0118
:103E40002C8550E8252E222A830123FC1CC006C0A5
:103E5000B70180E290E00E948A203A94832D90E09E
:103E600048165906A8F30FC0F50127FC859127FED7
:103E700081915F01B70190E00E948A2031103A944D
:103E8000F1E04F1A51084114510471F7EDC0843626
:103E900011F0893641F5F80127FF07C06081718173
:103EA000828193810C5F1F4F08C0608171818827D8
:103EB00077FD8095982F0E5F1F4F4FE6B42EB222EC
:103EC00097FF09C090958095709561957F4F8F4FB2
:103ED0009F4FF0E8BF2A2AE030E0A4010E94B620FC
:103EE000A82EA81843C0853731F43FEEB32EB22276
:103EF0002AE030E024C099EFB92EB2228F36B9F013
:103F000020F4883509F0B3C00DC0803721F0883720
:103F100009F0ADC002C020E1B22AB4FE0BC084E0BB
:103F2000B82A08C024FF09C0E6E0BE2A06C028E07F
:103F300030E005C020E130E002C020E132E0F801CD
:103F4000B7FE07C060817181828193810C5F1F4F32
:103F500006C06081718180E090E00E5F1F4FA40178
:103F60000E94B620A82EA818FFE7BF22B6FE0BC0FD
:103F70002B2D2E7FA51450F4B4FE0AC0B2FC08C04D
:103F80002B2D2E7E05C07A2C2B2D03C07A2C01C040
:103F9000752C24FF0DC0FE01EA0DF11D80818033D8
:103FA00011F4297E09C022FF06C07394739404C0E3
:103FB000822F867809F0739423FD14C020FF0FC070
:103FC0005A2C731460F4530C5718732C08C0B701A3
:103FD00080E290E02C870E948A2073942C857314D1
:103FE000B0F304C0731410F4371801C0312C24FF4F
:103FF00012C0B70180E390E02C870E948A202C85B4
:1040000022FF1EC021FF03C088E590E002C088E7C0
:1040100090E0B7010CC0822F867891F021FD02C09C
:1040200080E201C08BE227FD8DE2B70190E00E94A3
:104030008A2006C0B70180E390E00E948A205A944B
:10404000A514C0F3AA94F401EA0DF11DB701808113
:1040500090E00E948A20A110F5CF06C0B70180E24F
:1040600090E00E948A203A943110F8CF43CEF701B5
:104070002681378102C02FEF3FEFC9012C96E2E184
:104080000C944321DC01CB01FC01F999FECF06C061
:10409000F2BDE1BDF89A319600B40D924150504006
:1040A000B8F70895DC01A40FB51F4150504048F007
:1040B000CB01840F951F2E910E94632041505040E8
:1040C000D0F70895262FF999FECF92BD81BDF89AB9
:1040D000019700B4021639F01FBA20BD0FB6F8944C
:1040E000FA9AF99A0FBE0895FC010590615070404C
:1040F0000110D8F7809590958E0F9F1F0895FC01B1
:104100006150704001900110D8F7809590958E0F06
:104110009F1F08950F931F93CF93DF938C01EB01A3
:104120008B8181FD03C00FEF1FEF1AC082FF0DC00E
:104130002E813F818C819D812817390764F4E881A5
:10414000F9810193F983E88306C0E885F985802F1A
:104150000995892B41F78E819F8101969F838E83DC
:10416000C801DF91CF911F910F910895FA01AA27FD
:10417000283051F1203181F1E8946F936E7F6E5FAA
:104180007F4F8F4F9F4FAF4FB1E03ED0B4E03CD058
:10419000670F781F891F9A1FA11D680F791F8A1F3B
:1041A000911DA11D6A0F711D811D911DA11D20D0A2
:1041B00009F468943F912AE0269F11243019305D5C
:1041C0003193DEF6CF010895462F4770405D41934D
:1041D000B3E00FD0C9F7F6CF462F4F70405D4A339A
:1041E00018F0495D31FD4052419302D0A9F7EACF62
:1041F000B4E0A6959795879577956795BA95C9F791
:1042000000976105710508959B01AC010A2E069483
:104210005795479537952795BA95C9F7620F731F3C
:10422000841F951FA01D08950E94231DA59F900D1A
:10423000B49F900DA49F800D911D11240895B7FF88
:104240000C9414210E941421821B930B08952F9229
:104250003F924F925F926F927F928F929F92AF9216
:10426000BF92CF92DF92EF92FF920F931F93CF9363
:10427000DF93CDB7DEB7CA1BDB0B0FB6F894DEBFFA
:104280000FBECDBF09942A88398848885F846E8420
:104290007D848C849B84AA84B984C884DF80EE806A
:1042A000FD800C811B81AA81B981CE0FD11D0FB673
:1042B000F894DEBF0FBECDBFED010895F894FFCF97
:1042C000010000000FF00F0F0000000300000000CD
:1042D0006C17A6170000547769676765640098C17A
:1042E00018C30C8361300F0F0F0FF8789CF19C1DE1
:1042F000F6E64C6576656C2025640046726F67674C
:104300006572202D205874656E646564204564696B
:1043100074696F6E003432383436343133202D20D6
:104320005365616E204D616E736F6E202D20467255
:104330006F67676572003F065B4F666D7D077F6F35
:00000001FF
